{
  "_format": "hh-sol-artifact-1",
  "contractName": "FundMe",
  "sourceName": "contracts/FundMe.sol",
  "abi": [
    {
      "inputs": [
        {
          "internalType": "address",
          "name": "priceFeedAddress",
          "type": "address"
        }
      ],
      "stateMutability": "nonpayable",
      "type": "constructor"
    },
    {
      "inputs": [],
      "name": "FundMe__NotOwner",
      "type": "error"
    },
    {
      "stateMutability": "payable",
      "type": "fallback"
    },
    {
      "inputs": [],
      "name": "MINIMUM_USD",
      "outputs": [
        {
          "internalType": "uint256",
          "name": "",
          "type": "uint256"
        }
      ],
      "stateMutability": "view",
      "type": "function"
    },
    {
      "inputs": [
        {
          "internalType": "address",
          "name": "",
          "type": "address"
        }
      ],
      "name": "addressToAmountFunded",
      "outputs": [
        {
          "internalType": "uint256",
          "name": "",
          "type": "uint256"
        }
      ],
      "stateMutability": "view",
      "type": "function"
    },
    {
      "inputs": [],
      "name": "fund",
      "outputs": [],
      "stateMutability": "payable",
      "type": "function"
    },
    {
      "inputs": [
        {
          "internalType": "uint256",
          "name": "",
          "type": "uint256"
        }
      ],
      "name": "funders",
      "outputs": [
        {
          "internalType": "address",
          "name": "",
          "type": "address"
        }
      ],
      "stateMutability": "view",
      "type": "function"
    },
    {
      "inputs": [],
      "name": "getVersion",
      "outputs": [
        {
          "internalType": "uint256",
          "name": "",
          "type": "uint256"
        }
      ],
      "stateMutability": "view",
      "type": "function"
    },
    {
      "inputs": [],
      "name": "i_owner",
      "outputs": [
        {
          "internalType": "address",
          "name": "",
          "type": "address"
        }
      ],
      "stateMutability": "view",
      "type": "function"
    },
    {
      "inputs": [],
      "name": "priceFeed",
      "outputs": [
        {
          "internalType": "contract AggregatorV3Interface",
          "name": "",
          "type": "address"
        }
      ],
      "stateMutability": "view",
      "type": "function"
    },
    {
      "inputs": [],
      "name": "withdraw",
      "outputs": [],
      "stateMutability": "nonpayable",
      "type": "function"
    },
    {
      "stateMutability": "payable",
      "type": "receive"
    }
  ],
  "bytecode": "0x60806040523480156200001157600080fd5b50604051620013353803806200133583398181016040528101906200003791906200012a565b33600260006101000a81548173ffffffffffffffffffffffffffffffffffffffff021916908373ffffffffffffffffffffffffffffffffffffffff16021790555080600360006101000a81548173ffffffffffffffffffffffffffffffffffffffff021916908373ffffffffffffffffffffffffffffffffffffffff160217905550506200015c565b600080fd5b600073ffffffffffffffffffffffffffffffffffffffff82169050919050565b6000620000f282620000c5565b9050919050565b6200010481620000e5565b81146200011057600080fd5b50565b6000815190506200012481620000f9565b92915050565b600060208284031215620001435762000142620000c0565b5b6000620001538482850162000113565b91505092915050565b6111c9806200016c6000396000f3fe60806040526004361061007f5760003560e01c8063741bef1a1161004e578063741bef1a14610142578063b60d42881461016d578063dba6335f14610177578063dc0d3dff146101a25761008e565b80630d8e6e2c146100985780633ccfd60b146100c35780633e47d6f3146100da5780636b69a592146101175761008e565b3661008e5761008c6101df565b005b6100966101df565b005b3480156100a457600080fd5b506100ad610356565b6040516100ba9190610a28565b60405180910390f35b3480156100cf57600080fd5b506100d86103fd565b005b3480156100e657600080fd5b5061010160048036038101906100fc9190610aa6565b61067e565b60405161010e9190610a28565b60405180910390f35b34801561012357600080fd5b5061012c610696565b6040516101399190610a28565b60405180910390f35b34801561014e57600080fd5b506101576106a3565b6040516101649190610b32565b60405180910390f35b6101756101df565b005b34801561018357600080fd5b5061018c6106c9565b6040516101999190610b5c565b60405180910390f35b3480156101ae57600080fd5b506101c960048036038101906101c49190610ba3565b6106ef565b6040516101d69190610b5c565b60405180910390f35b61021c610217600360009054906101000a900473ffffffffffffffffffffffffffffffffffffffff163461072e90919063ffffffff16565b61076a565b61022e6802b5e3af16b188000061076a565b6802b5e3af16b188000061026d600360009054906101000a900473ffffffffffffffffffffffffffffffffffffffff163461072e90919063ffffffff16565b10156102ae576040517f08c379a00000000000000000000000000000000000000000000000000000000081526004016102a590610c2d565b60405180910390fd5b6001339080600181540180825580915050600190039060005260206000200160009091909190916101000a81548173ffffffffffffffffffffffffffffffffffffffff021916908373ffffffffffffffffffffffffffffffffffffffff160217905550346000803373ffffffffffffffffffffffffffffffffffffffff1673ffffffffffffffffffffffffffffffffffffffff16815260200190815260200160002081905550565b6000600360009054906101000a900473ffffffffffffffffffffffffffffffffffffffff1673ffffffffffffffffffffffffffffffffffffffff166354fd4d506040518163ffffffff1660e01b815260040160206040518083038186803b1580156103c057600080fd5b505afa1580156103d4573d6000803e3d6000fd5b505050506040513d601f19601f820116820180604052508101906103f89190610c62565b905090565b600260009054906101000a900473ffffffffffffffffffffffffffffffffffffffff1673ffffffffffffffffffffffffffffffffffffffff163373ffffffffffffffffffffffffffffffffffffffff1614610484576040517f579610db00000000000000000000000000000000000000000000000000000000815260040160405180910390fd5b60005b60018054905081101561052f576000600182815481106104aa576104a9610c8f565b5b9060005260206000200160009054906101000a900473ffffffffffffffffffffffffffffffffffffffff16905060008060008373ffffffffffffffffffffffffffffffffffffffff1673ffffffffffffffffffffffffffffffffffffffff1681526020019081526020016000208190555050808061052790610ced565b915050610487565b50600067ffffffffffffffff81111561054b5761054a610d36565b5b6040519080825280602002602001820160405280156105795781602001602082028036833780820191505090505b506001908051906020019061058f929190610968565b506105cf6040518060400160405280601481526020017f46756e644d652062616c616e636520697320257300000000000000000000000081525047610803565b60003373ffffffffffffffffffffffffffffffffffffffff16476040516105f590610d96565b60006040518083038185875af1925050503d8060008114610632576040519150601f19603f3d011682016040523d82523d6000602084013e610637565b606091505b505090508061067b576040517f08c379a000000000000000000000000000000000000000000000000000000000815260040161067290610df7565b60405180910390fd5b50565b60006020528060005260406000206000915090505481565b6802b5e3af16b188000081565b600360009054906101000a900473ffffffffffffffffffffffffffffffffffffffff1681565b600260009054906101000a900473ffffffffffffffffffffffffffffffffffffffff1681565b600181815481106106ff57600080fd5b906000526020600020016000915054906101000a900473ffffffffffffffffffffffffffffffffffffffff1681565b60008061073a8361089f565b90506000670de0b6b3a764000085836107539190610e17565b61075d9190610ea0565b9050809250505092915050565b6108008160405160240161077e9190610a28565b6040516020818303038152906040527ff82c50f1000000000000000000000000000000000000000000000000000000007bffffffffffffffffffffffffffffffffffffffffffffffffffffffff19166020820180517bffffffffffffffffffffffffffffffffffffffffffffffffffffffff838183161783525050505061093f565b50565b61089b8282604051602401610819929190610f59565b6040516020818303038152906040527fb60e72cc000000000000000000000000000000000000000000000000000000007bffffffffffffffffffffffffffffffffffffffffffffffffffffffff19166020820180517bffffffffffffffffffffffffffffffffffffffffffffffffffffffff838183161783525050505061093f565b5050565b6000808273ffffffffffffffffffffffffffffffffffffffff1663feaf968c6040518163ffffffff1660e01b815260040160a06040518083038186803b1580156108e857600080fd5b505afa1580156108fc573d6000803e3d6000fd5b505050506040513d601f19601f820116820180604052508101906109209190611001565b5050509150506402540be40081610937919061107c565b915050919050565b60008151905060006a636f6e736f6c652e6c6f679050602083016000808483855afa5050505050565b8280548282559060005260206000209081019282156109e1579160200282015b828111156109e05782518260006101000a81548173ffffffffffffffffffffffffffffffffffffffff021916908373ffffffffffffffffffffffffffffffffffffffff16021790555091602001919060010190610988565b5b5090506109ee91906109f2565b5090565b5b80821115610a0b5760008160009055506001016109f3565b5090565b6000819050919050565b610a2281610a0f565b82525050565b6000602082019050610a3d6000830184610a19565b92915050565b600080fd5b600073ffffffffffffffffffffffffffffffffffffffff82169050919050565b6000610a7382610a48565b9050919050565b610a8381610a68565b8114610a8e57600080fd5b50565b600081359050610aa081610a7a565b92915050565b600060208284031215610abc57610abb610a43565b5b6000610aca84828501610a91565b91505092915050565b6000819050919050565b6000610af8610af3610aee84610a48565b610ad3565b610a48565b9050919050565b6000610b0a82610add565b9050919050565b6000610b1c82610aff565b9050919050565b610b2c81610b11565b82525050565b6000602082019050610b476000830184610b23565b92915050565b610b5681610a68565b82525050565b6000602082019050610b716000830184610b4d565b92915050565b610b8081610a0f565b8114610b8b57600080fd5b50565b600081359050610b9d81610b77565b92915050565b600060208284031215610bb957610bb8610a43565b5b6000610bc784828501610b8e565b91505092915050565b600082825260208201905092915050565b7f4469646e742073656e6420656e6f756768000000000000000000000000000000600082015250565b6000610c17601183610bd0565b9150610c2282610be1565b602082019050919050565b60006020820190508181036000830152610c4681610c0a565b9050919050565b600081519050610c5c81610b77565b92915050565b600060208284031215610c7857610c77610a43565b5b6000610c8684828501610c4d565b91505092915050565b7f4e487b7100000000000000000000000000000000000000000000000000000000600052603260045260246000fd5b7f4e487b7100000000000000000000000000000000000000000000000000000000600052601160045260246000fd5b6000610cf882610a0f565b91507fffffffffffffffffffffffffffffffffffffffffffffffffffffffffffffffff821415610d2b57610d2a610cbe565b5b600182019050919050565b7f4e487b7100000000000000000000000000000000000000000000000000000000600052604160045260246000fd5b600081905092915050565b50565b6000610d80600083610d65565b9150610d8b82610d70565b600082019050919050565b6000610da182610d73565b9150819050919050565b7f43616c6c206661696c6564000000000000000000000000000000000000000000600082015250565b6000610de1600b83610bd0565b9150610dec82610dab565b602082019050919050565b60006020820190508181036000830152610e1081610dd4565b9050919050565b6000610e2282610a0f565b9150610e2d83610a0f565b9250817fffffffffffffffffffffffffffffffffffffffffffffffffffffffffffffffff0483118215151615610e6657610e65610cbe565b5b828202905092915050565b7f4e487b7100000000000000000000000000000000000000000000000000000000600052601260045260246000fd5b6000610eab82610a0f565b9150610eb683610a0f565b925082610ec657610ec5610e71565b5b828204905092915050565b600081519050919050565b60005b83811015610efa578082015181840152602081019050610edf565b83811115610f09576000848401525b50505050565b6000601f19601f8301169050919050565b6000610f2b82610ed1565b610f358185610bd0565b9350610f45818560208601610edc565b610f4e81610f0f565b840191505092915050565b60006040820190508181036000830152610f738185610f20565b9050610f826020830184610a19565b9392505050565b600069ffffffffffffffffffff82169050919050565b610fa881610f89565b8114610fb357600080fd5b50565b600081519050610fc581610f9f565b92915050565b6000819050919050565b610fde81610fcb565b8114610fe957600080fd5b50565b600081519050610ffb81610fd5565b92915050565b600080600080600060a0868803121561101d5761101c610a43565b5b600061102b88828901610fb6565b955050602061103c88828901610fec565b945050604061104d88828901610c4d565b935050606061105e88828901610c4d565b925050608061106f88828901610fb6565b9150509295509295909350565b600061108782610fcb565b915061109283610fcb565b9250827f7fffffffffffffffffffffffffffffffffffffffffffffffffffffffffffffff04821160008413600084131616156110d1576110d0610cbe565b5b817f8000000000000000000000000000000000000000000000000000000000000000058312600084126000841316161561110e5761110d610cbe565b5b827f8000000000000000000000000000000000000000000000000000000000000000058212600084136000841216161561114b5761114a610cbe565b5b827f7fffffffffffffffffffffffffffffffffffffffffffffffffffffffffffffff058212600084126000841216161561118857611187610cbe565b5b82820290509291505056fea264697066735822122055d846c930a82ca53c1a84d9c5599f08d929a45279f780b1ed63a48109d35e0f64736f6c63430008080033",
  "linkReferences": {},
  "deployedLinkReferences": {}
}